{
  "contractName": "GreeterV3",
  "abi": [
    {
      "constant": true,
      "inputs": [],
      "name": "name",
      "outputs": [
        {
          "name": "",
          "type": "string"
        }
      ],
      "payable": false,
      "stateMutability": "view",
      "type": "function"
    },
    {
      "constant": false,
      "inputs": [],
      "name": "initialize",
      "outputs": [],
      "payable": false,
      "stateMutability": "nonpayable",
      "type": "function"
    },
    {
      "constant": true,
      "inputs": [
        {
          "name": "contractName",
          "type": "string"
        },
        {
          "name": "migrationId",
          "type": "string"
        }
      ],
      "name": "isMigrated",
      "outputs": [
        {
          "name": "",
          "type": "bool"
        }
      ],
      "payable": false,
      "stateMutability": "view",
      "type": "function"
    },
    {
      "constant": false,
      "inputs": [
        {
          "name": "_name",
          "type": "string"
        }
      ],
      "name": "initialize",
      "outputs": [],
      "payable": false,
      "stateMutability": "nonpayable",
      "type": "function"
    },
    {
      "anonymous": false,
      "inputs": [
        {
          "indexed": false,
          "name": "name",
          "type": "string"
        },
        {
          "indexed": false,
          "name": "message",
          "type": "string"
        },
        {
          "indexed": false,
          "name": "date",
          "type": "uint256"
        },
        {
          "indexed": false,
          "name": "publisher",
          "type": "address"
        }
      ],
      "name": "PublishName",
      "type": "event"
    },
    {
      "anonymous": false,
      "inputs": [
        {
          "indexed": false,
          "name": "contractName",
          "type": "string"
        },
        {
          "indexed": false,
          "name": "migrationId",
          "type": "string"
        }
      ],
      "name": "Migrated",
      "type": "event"
    },
    {
      "constant": true,
      "inputs": [],
      "name": "greet",
      "outputs": [
        {
          "name": "",
          "type": "string"
        }
      ],
      "payable": false,
      "stateMutability": "view",
      "type": "function"
    },
    {
      "constant": true,
      "inputs": [
        {
          "name": "_name",
          "type": "string"
        }
      ],
      "name": "greet",
      "outputs": [
        {
          "name": "",
          "type": "string"
        }
      ],
      "payable": false,
      "stateMutability": "view",
      "type": "function"
    },
    {
      "constant": false,
      "inputs": [
        {
          "name": "_name",
          "type": "string"
        },
        {
          "name": "_message",
          "type": "string"
        }
      ],
      "name": "setMessage",
      "outputs": [
        {
          "name": "",
          "type": "bool"
        }
      ],
      "payable": false,
      "stateMutability": "nonpayable",
      "type": "function"
    },
    {
      "constant": true,
      "inputs": [
        {
          "name": "_name",
          "type": "string"
        }
      ],
      "name": "getMessage",
      "outputs": [
        {
          "name": "",
          "type": "string"
        }
      ],
      "payable": false,
      "stateMutability": "view",
      "type": "function"
    }
  ],
  "bytecode": "0x608060405234801561001057600080fd5b5061167a806100206000396000f30060806040526004361061008e576000357c0100000000000000000000000000000000000000000000000000000000900463ffffffff16806306fdde03146100935780630cc4e8d8146101235780638129fc1c146102055780639cd38a491461021c578063c0bac1a8146102e3578063cfae3217146103aa578063ead710c41461043a578063f62d18881461051c575b600080fd5b34801561009f57600080fd5b506100a8610585565b6040518080602001828103825283818151815260200191508051906020019080838360005b838110156100e85780820151818401526020810190506100cd565b50505050905090810190601f1680156101155780820380516001836020036101000a031916815260200191505b509250505060405180910390f35b34801561012f57600080fd5b5061018a600480360381019080803590602001908201803590602001908080601f0160208091040260200160405190810160405280939291908181526020018383808284378201915050505050509192919290505050610623565b6040518080602001828103825283818151815260200191508051906020019080838360005b838110156101ca5780820151818401526020810190506101af565b50505050905090810190601f1680156101f75780820380516001836020036101000a031916815260200191505b509250505060405180910390f35b34801561021157600080fd5b5061021a610730565b005b34801561022857600080fd5b506102c9600480360381019080803590602001908201803590602001908080601f0160208091040260200160405190810160405280939291908181526020018383808284378201915050505050509192919290803590602001908201803590602001908080601f0160208091040260200160405190810160405280939291908181526020018383808284378201915050505050509192919290505050610b01565b604051808215151515815260200191505060405180910390f35b3480156102ef57600080fd5b50610390600480360381019080803590602001908201803590602001908080601f0160208091040260200160405190810160405280939291908181526020018383808284378201915050505050509192919290803590602001908201803590602001908080601f0160208091040260200160405190810160405280939291908181526020018383808284378201915050505050509192919290505050610cd2565b604051808215151515815260200191505060405180910390f35b3480156103b657600080fd5b506103bf610dbd565b6040518080602001828103825283818151815260200191508051906020019080838360005b838110156103ff5780820151818401526020810190506103e4565b50505050905090810190601f16801561042c5780820380516001836020036101000a031916815260200191505b509250505060405180910390f35b34801561044657600080fd5b506104a1600480360381019080803590602001908201803590602001908080601f0160208091040260200160405190810160405280939291908181526020018383808284378201915050505050509192919290505050610e5f565b6040518080602001828103825283818151815260200191508051906020019080838360005b838110156104e15780820151818401526020810190506104c6565b50505050905090810190601f16801561050e5780820380516001836020036101000a031916815260200191505b509250505060405180910390f35b34801561052857600080fd5b50610583600480360381019080803590602001908201803590602001908080601f0160208091040260200160405190810160405280939291908181526020018383808284378201915050505050509192919290505050611117565b005b60018054600181600116156101000203166002900480601f01602080910402602001604051908101604052809291908181526020018280546001816001161561010002031660029004801561061b5780601f106105f05761010080835404028352916020019161061b565b820191906000526020600020905b8154815290600101906020018083116105fe57829003601f168201915b505050505081565b60606003826040518082805190602001908083835b60208310151561065d5780518252602082019150602081019050602083039250610638565b6001836020036101000a03801982511681845116808217855250505050505090500191505090815260200160405180910390208054600181600116156101000203166002900480601f0160208091040260200160405190810160405280929190818152602001828054600181600116156101000203166002900480156107245780601f106106f957610100808354040283529160200191610724565b820191906000526020600020905b81548152906001019060200180831161070757829003601f168201915b50505050509050919050565b6040805190810160405280600a81526020017f4d696772617461626c65000000000000000000000000000000000000000000008152506040805190810160405280600581526020017f312e322e310000000000000000000000000000000000000000000000000000008152506107db826040805190810160405280600b81526020017f696e697469616c697a6564000000000000000000000000000000000000000000815250611500565b6107e58282611500565b7fdd117a11c22118c9dee4b5a67ce578bc44529dce21ee0ccc439588fbb9fb4ea38282604051808060200180602001838103835285818151815260200191508051906020019080838360005b8381101561084c578082015181840152602081019050610831565b50505050905090810190601f1680156108795780820380516001836020036101000a031916815260200191505b50838103825284818151815260200191508051906020019080838360005b838110156108b2578082015181840152602081019050610897565b50505050905090810190601f1680156108df5780820380516001836020036101000a031916815260200191505b5094505050505060405180910390a160016000836040518082805190602001908083835b6020831015156109285780518252602082019150602081019050602083039250610903565b6001836020036101000a0380198251168184511680821785525050505050509050019150509081526020016040518091039020826040518082805190602001908083835b602083101515610991578051825260208201915060208101905060208303925061096c565b6001836020036101000a038019825116818451168082178552505050505050905001915050908152602001604051809103902060006101000a81548160ff02191690831515021790555060016000836040518082805190602001908083835b602083101515610a1557805182526020820191506020810190506020830392506109f0565b6001836020036101000a03801982511681845116808217855250505050505090500191505090815260200160405180910390206040805190810160405280600b81526020017f696e697469616c697a65640000000000000000000000000000000000000000008152506040518082805190602001908083835b602083101515610ab35780518252602082019150602081019050602083039250610a8e565b6001836020036101000a038019825116818451168082178552505050505050905001915050908152602001604051809103902060006101000a81548160ff0219169083151502179055505050565b6000816003846040518082805190602001908083835b602083101515610b3c5780518252602082019150602081019050602083039250610b17565b6001836020036101000a03801982511681845116808217855250505050505090500191505090815260200160405180910390209080519060200190610b829291906115a9565b507f38d28bfd3605942c7fdcf265bc80ab1f8088f78e5ef52d3a6a1e30d1af5eda71838342336040518080602001806020018581526020018473ffffffffffffffffffffffffffffffffffffffff1673ffffffffffffffffffffffffffffffffffffffff168152602001838103835287818151815260200191508051906020019080838360005b83811015610c24578082015181840152602081019050610c09565b50505050905090810190601f168015610c515780820380516001836020036101000a031916815260200191505b50838103825286818151815260200191508051906020019080838360005b83811015610c8a578082015181840152602081019050610c6f565b50505050905090810190601f168015610cb75780820380516001836020036101000a031916815260200191505b50965050505050505060405180910390a16001905092915050565b600080836040518082805190602001908083835b602083101515610d0b5780518252602082019150602081019050602083039250610ce6565b6001836020036101000a0380198251168184511680821785525050505050509050019150509081526020016040518091039020826040518082805190602001908083835b602083101515610d745780518252602082019150602081019050602083039250610d4f565b6001836020036101000a038019825116818451168082178552505050505050905001915050908152602001604051809103902060009054906101000a900460ff16905092915050565b606060018054600181600116156101000203166002900480601f016020809104026020016040519081016040528092919081815260200182805460018160011615610100020316600290048015610e555780601f10610e2a57610100808354040283529160200191610e55565b820191906000526020600020905b815481529060010190602001808311610e3857829003601f168201915b5050505050905090565b60606001826003846040518082805190602001908083835b602083101515610e9c5780518252602082019150602081019050602083039250610e77565b6001836020036101000a0380198251168184511680821785525050505050509050019150509081526020016040518091039020604051602001808060200180602001806020018060200180602001806020018781038752600d8152602001807f4d6573736167652066726f6d200000000000000000000000000000000000000081525060200187810386528a818154600181600116156101000203166002900481526020019150805460018160011615610100020316600290048015610fa35780601f10610f7857610100808354040283529160200191610fa3565b820191906000526020600020905b815481529060010190602001808311610f8657829003601f168201915b5050878103855260048152602001807f20746f2000000000000000000000000000000000000000000000000000000000815250602001878103845289818151815260200191508051906020019080838360005b83811015611011578082015181840152602081019050610ff6565b50505050905090810190601f16801561103e5780820380516001836020036101000a031916815260200191505b50878103835260048152602001807f20697320000000000000000000000000000000000000000000000000000000008152506020018781038252888181546001816001161561010002031660029004815260200191508054600181600116156101000203166002900480156110f45780601f106110c9576101008083540402835291602001916110f4565b820191906000526020600020905b8154815290600101906020018083116110d757829003601f168201915b505099505050505050505050506040516020818303038152906040529050919050565b6040805190810160405280600781526020017f47726565746572000000000000000000000000000000000000000000000000008152506040805190810160405280600181526020017f30000000000000000000000000000000000000000000000000000000000000008152506111c2826040805190810160405280600b81526020017f696e697469616c697a6564000000000000000000000000000000000000000000815250611500565b6111cc8282611500565b82600190805190602001906111e29291906115a9565b507fdd117a11c22118c9dee4b5a67ce578bc44529dce21ee0ccc439588fbb9fb4ea38282604051808060200180602001838103835285818151815260200191508051906020019080838360005b8381101561124a57808201518184015260208101905061122f565b50505050905090810190601f1680156112775780820380516001836020036101000a031916815260200191505b50838103825284818151815260200191508051906020019080838360005b838110156112b0578082015181840152602081019050611295565b50505050905090810190601f1680156112dd5780820380516001836020036101000a031916815260200191505b5094505050505060405180910390a160016000836040518082805190602001908083835b6020831015156113265780518252602082019150602081019050602083039250611301565b6001836020036101000a0380198251168184511680821785525050505050509050019150509081526020016040518091039020826040518082805190602001908083835b60208310151561138f578051825260208201915060208101905060208303925061136a565b6001836020036101000a038019825116818451168082178552505050505050905001915050908152602001604051809103902060006101000a81548160ff02191690831515021790555060016000836040518082805190602001908083835b60208310151561141357805182526020820191506020810190506020830392506113ee565b6001836020036101000a03801982511681845116808217855250505050505090500191505090815260200160405180910390206040805190810160405280600b81526020017f696e697469616c697a65640000000000000000000000000000000000000000008152506040518082805190602001908083835b6020831015156114b1578051825260208201915060208101905060208303925061148c565b6001836020036101000a038019825116818451168082178552505050505050905001915050908152602001604051809103902060006101000a81548160ff021916908315150217905550505050565b61150a8282610cd2565b1515156115a5576040517f08c379a00000000000000000000000000000000000000000000000000000000081526004018080602001828103825260328152602001807f52657175657374656420746172676574206d6967726174696f6e20494420686181526020017f7320616c7265616479206265656e2072756e000000000000000000000000000081525060400191505060405180910390fd5b5050565b828054600181600116156101000203166002900490600052602060002090601f016020900481019282601f106115ea57805160ff1916838001178555611618565b82800160010185558215611618579182015b828111156116175782518255916020019190600101906115fc565b5b5090506116259190611629565b5090565b61164b91905b8082111561164757600081600090555060010161162f565b5090565b905600a165627a7a72305820b10564bac489c8bf2e9d4ff15d7f6645303afc2429fb0d65e6d8469594114a650029",
  "source": "pragma solidity ^0.4.24;\n\nimport './GreeterV2.sol';\n\ncontract GreeterV3 is GreeterV2{\n\n    event PublishName(string name, string message, uint256 date, address publisher);\n\n    mapping(string => string) name_message;\n\n    function greet(string _name) public view returns (string){\n        return string(abi.encode(\"Message from \", name, \" to \", _name , \" is \" , name_message[_name]));\n    }\n\n    function setMessage(string _name, string _message) public returns (bool){\n        name_message[_name] = _message;\n        emit PublishName(_name, _message, now, msg.sender);\n        return true;\n    }\n\n    function getMessage(string _name) public view returns (string){\n        return name_message[_name];\n    }\n\n}",
  "sourcePath": "/Users/ayushgupta/Personal/zos-demo/contracts/GreeterV3.sol",
  "compiler": {
    "name": "solc",
    "version": "0.4.24+commit.e67f0147.Emscripten.clang"
  },
  "schemaVersion": "2.0.1",
  "updatedAt": "2019-04-06T04:58:54.619Z"
}